{
  "address": "0xf55536261d78fc0Cd4768605d380466DCCe2E8dE",
  "abi": [
    {
      "inputs": [
        {
          "internalType": "address",
          "name": "_owner",
          "type": "address"
        }
      ],
      "stateMutability": "nonpayable",
      "type": "constructor"
    },
    {
      "inputs": [],
      "name": "AccessControlBadConfirmation",
      "type": "error"
    },
    {
      "inputs": [
        {
          "internalType": "address",
          "name": "account",
          "type": "address"
        },
        {
          "internalType": "bytes32",
          "name": "neededRole",
          "type": "bytes32"
        }
      ],
      "name": "AccessControlUnauthorizedAccount",
      "type": "error"
    },
    {
      "inputs": [],
      "name": "DeployerRoleMissing",
      "type": "error"
    },
    {
      "inputs": [],
      "name": "InvalidBytecode",
      "type": "error"
    },
    {
      "inputs": [],
      "name": "InvalidSalt",
      "type": "error"
    },
    {
      "inputs": [],
      "name": "ZeroAddressNotAllowed",
      "type": "error"
    },
    {
      "anonymous": false,
      "inputs": [
        {
          "indexed": true,
          "internalType": "bytes32",
          "name": "role",
          "type": "bytes32"
        },
        {
          "indexed": true,
          "internalType": "bytes32",
          "name": "previousAdminRole",
          "type": "bytes32"
        },
        {
          "indexed": true,
          "internalType": "bytes32",
          "name": "newAdminRole",
          "type": "bytes32"
        }
      ],
      "name": "RoleAdminChanged",
      "type": "event"
    },
    {
      "anonymous": false,
      "inputs": [
        {
          "indexed": true,
          "internalType": "bytes32",
          "name": "role",
          "type": "bytes32"
        },
        {
          "indexed": true,
          "internalType": "address",
          "name": "account",
          "type": "address"
        },
        {
          "indexed": true,
          "internalType": "address",
          "name": "sender",
          "type": "address"
        }
      ],
      "name": "RoleGranted",
      "type": "event"
    },
    {
      "anonymous": false,
      "inputs": [
        {
          "indexed": true,
          "internalType": "bytes32",
          "name": "role",
          "type": "bytes32"
        },
        {
          "indexed": true,
          "internalType": "address",
          "name": "account",
          "type": "address"
        },
        {
          "indexed": true,
          "internalType": "address",
          "name": "sender",
          "type": "address"
        }
      ],
      "name": "RoleRevoked",
      "type": "event"
    },
    {
      "anonymous": false,
      "inputs": [
        {
          "indexed": true,
          "internalType": "address",
          "name": "contractAddress",
          "type": "address"
        },
        {
          "indexed": true,
          "internalType": "address",
          "name": "deployedBy",
          "type": "address"
        }
      ],
      "name": "SparkRegistryContractDeployed",
      "type": "event"
    },
    {
      "inputs": [],
      "name": "DEFAULT_ADMIN_ROLE",
      "outputs": [
        {
          "internalType": "bytes32",
          "name": "",
          "type": "bytes32"
        }
      ],
      "stateMutability": "view",
      "type": "function"
    },
    {
      "inputs": [],
      "name": "DEPLOYER_ROLE",
      "outputs": [
        {
          "internalType": "bytes32",
          "name": "",
          "type": "bytes32"
        }
      ],
      "stateMutability": "view",
      "type": "function"
    },
    {
      "inputs": [
        {
          "internalType": "bytes32",
          "name": "_salt",
          "type": "bytes32"
        }
      ],
      "name": "computeAddress",
      "outputs": [
        {
          "internalType": "address",
          "name": "contractAddress",
          "type": "address"
        }
      ],
      "stateMutability": "view",
      "type": "function"
    },
    {
      "inputs": [
        {
          "internalType": "uint256",
          "name": "_amount",
          "type": "uint256"
        },
        {
          "internalType": "bytes32",
          "name": "_salt",
          "type": "bytes32"
        },
        {
          "internalType": "bytes",
          "name": "_bytecode",
          "type": "bytes"
        }
      ],
      "name": "determinsiticDeploy",
      "outputs": [
        {
          "internalType": "address",
          "name": "deployedContractAddress",
          "type": "address"
        }
      ],
      "stateMutability": "nonpayable",
      "type": "function"
    },
    {
      "inputs": [
        {
          "internalType": "bytes32",
          "name": "role",
          "type": "bytes32"
        }
      ],
      "name": "getRoleAdmin",
      "outputs": [
        {
          "internalType": "bytes32",
          "name": "",
          "type": "bytes32"
        }
      ],
      "stateMutability": "view",
      "type": "function"
    },
    {
      "inputs": [
        {
          "internalType": "bytes32",
          "name": "role",
          "type": "bytes32"
        },
        {
          "internalType": "uint256",
          "name": "index",
          "type": "uint256"
        }
      ],
      "name": "getRoleMember",
      "outputs": [
        {
          "internalType": "address",
          "name": "",
          "type": "address"
        }
      ],
      "stateMutability": "view",
      "type": "function"
    },
    {
      "inputs": [
        {
          "internalType": "bytes32",
          "name": "role",
          "type": "bytes32"
        }
      ],
      "name": "getRoleMemberCount",
      "outputs": [
        {
          "internalType": "uint256",
          "name": "",
          "type": "uint256"
        }
      ],
      "stateMutability": "view",
      "type": "function"
    },
    {
      "inputs": [
        {
          "internalType": "bytes32",
          "name": "role",
          "type": "bytes32"
        },
        {
          "internalType": "address",
          "name": "account",
          "type": "address"
        }
      ],
      "name": "grantRole",
      "outputs": [],
      "stateMutability": "nonpayable",
      "type": "function"
    },
    {
      "inputs": [
        {
          "internalType": "bytes32",
          "name": "role",
          "type": "bytes32"
        },
        {
          "internalType": "address",
          "name": "account",
          "type": "address"
        }
      ],
      "name": "hasRole",
      "outputs": [
        {
          "internalType": "bool",
          "name": "",
          "type": "bool"
        }
      ],
      "stateMutability": "view",
      "type": "function"
    },
    {
      "inputs": [
        {
          "internalType": "bytes32",
          "name": "role",
          "type": "bytes32"
        },
        {
          "internalType": "address",
          "name": "callerConfirmation",
          "type": "address"
        }
      ],
      "name": "renounceRole",
      "outputs": [],
      "stateMutability": "nonpayable",
      "type": "function"
    },
    {
      "inputs": [
        {
          "internalType": "bytes32",
          "name": "role",
          "type": "bytes32"
        },
        {
          "internalType": "address",
          "name": "account",
          "type": "address"
        }
      ],
      "name": "revokeRole",
      "outputs": [],
      "stateMutability": "nonpayable",
      "type": "function"
    },
    {
      "inputs": [
        {
          "internalType": "bytes4",
          "name": "interfaceId",
          "type": "bytes4"
        }
      ],
      "name": "supportsInterface",
      "outputs": [
        {
          "internalType": "bool",
          "name": "",
          "type": "bool"
        }
      ],
      "stateMutability": "view",
      "type": "function"
    }
  ],
  "transactionHash": "0x1c181879b4a86cdcdc7b026c7933e3df945451a9c92017318176644444693e9e",
  "args": [
    "0xaD733B7055eCAebFb3B38626f0148c5d12158F03"
  ],
  "numDeployments": 1,
  "solcInputHash": "f39ab2762d672e6071306da633bc21e3",
  "bytecode": "0x60806040523480156200001157600080fd5b5060405162000e0338038062000e038339810160408190526200003491620001f1565b6200003f8162000081565b6200004c600082620000ac565b50620000797ffc425f2263d0df187444b70e47283d622c70181c5baebb1306a01edba1ce184c82620000ac565b50506200021c565b6001600160a01b038116620000a9576040516342bcdf7f60e11b815260040160405180910390fd5b50565b600080620000bb8484620000e9565b90508015620000e0576000848152600160205260409020620000de908462000197565b505b90505b92915050565b6000828152602081815260408083206001600160a01b038516845290915281205460ff166200018e576000838152602081815260408083206001600160a01b03861684529091529020805460ff19166001179055620001453390565b6001600160a01b0316826001600160a01b0316847f2f8788117e7eff1d82e926ec794901d17c78024a50270940304540a733656f0d60405160405180910390a4506001620000e3565b506000620000e3565b6000620000e0836001600160a01b03841660008181526001830160205260408120546200018e57508154600181810184556000848152602080822090930184905584548482528286019093526040902091909155620000e3565b6000602082840312156200020457600080fd5b81516001600160a01b0381168114620000e057600080fd5b610bd7806200022c6000396000f3fe608060405234801561001057600080fd5b50600436106100b45760003560e01c80639010d07c116100715780639010d07c1461017857806391d148541461018b578063a217fddf1461019e578063ca15c873146101a6578063d547741f146101b9578063ecd00261146101cc57600080fd5b806301ffc9a7146100b9578063248a9ca3146100e15780632f2ff15d1461011257806336568abe1461012757806350cd25751461013a5780637fde56da14610165575b600080fd5b6100cc6100c7366004610a04565b6101f3565b60405190151581526020015b60405180910390f35b6101046100ef366004610a2e565b60009081526020819052604090206001015490565b6040519081526020016100d8565b610125610120366004610a47565b61021e565b005b610125610135366004610a47565b610249565b61014d610148366004610a83565b610281565b6040516001600160a01b0390911681526020016100d8565b61014d610173366004610a2e565b61038d565b61014d610186366004610b03565b610398565b6100cc610199366004610a47565b6103b7565b610104600081565b6101046101b4366004610a2e565b6103e0565b6101256101c7366004610a47565b6103f7565b6101047ffc425f2263d0df187444b70e47283d622c70181c5baebb1306a01edba1ce184c81565b60006001600160e01b03198216635a05180f60e01b148061021857506102188261041c565b92915050565b60008281526020819052604090206001015461023981610451565b610243838361045e565b50505050565b6001600160a01b03811633146102725760405163334bd91960e11b815260040160405180910390fd5b61027c8282610493565b505050565b60006102ad7ffc425f2263d0df187444b70e47283d622c70181c5baebb1306a01edba1ce184c336103b7565b1580156102c257506102c06000336103b7565b155b156102e05760405163076db71560e51b815260040160405180910390fd5b600082900361030257604051632363964360e01b815260040160405180910390fd5b6103448484848080601f0160208091040260200160405190810160405280939291908181526020018383808284376000920191909152508a92506104c0915050565b905061034f8161061b565b60405133906001600160a01b038316907f0fb72b1a3fff1a79981d0ead4f325df6e16eb180f18b0f2b06ecc9e1c42427e590600090a3949350505050565b600061021882610642565b60008281526001602052604081206103b09083610726565b9392505050565b6000918252602082815260408084206001600160a01b0393909316845291905290205460ff1690565b600081815260016020526040812061021890610732565b60008281526020819052604090206001015461041281610451565b6102438383610493565b60006001600160e01b03198216637965db0b60e01b148061021857506301ffc9a760e01b6001600160e01b0319831614610218565b61045b813361073c565b50565b60008061046b8484610779565b905080156103b057600084815260016020526040902061048b908461080b565b509392505050565b6000806104a08484610820565b905080156103b057600084815260016020526040902061048b908461088b565b6000806040518060400160405280601081526020016f67363d3d37363d34f03d5260086018f360801b81525090506000858251602084016000f590506001600160a01b03811661054b5760405162461bcd60e51b81526020600482015260116024820152701111541313d65351539517d19052531151607a1b60448201526064015b60405180910390fd5b61055486610642565b92506000816001600160a01b031685876040516105719190610b25565b60006040518083038185875af1925050503d80600081146105ae576040519150601f19603f3d011682016040523d82523d6000602084013e6105b3565b606091505b505090508080156105cd57506001600160a01b0384163b15155b6106115760405162461bcd60e51b815260206004820152601560248201527412539255125053125690551253d397d19052531151605a1b6044820152606401610542565b5050509392505050565b6001600160a01b03811661045b576040516342bcdf7f60e11b815260040160405180910390fd5b604080518082018252601081526f67363d3d37363d34f03d5260086018f360801b60209182015290516001600160f81b0319918101919091526bffffffffffffffffffffffff193060601b166021820152603581018290527f21c35dbe1b344a2488cf3321d6ce542f8e9f305544ff09e4993a62319a497c1f605582015260009081906106e6906075015b6040516020818303038152906040528051906020012090565b6040516135a560f21b60208201526bffffffffffffffffffffffff19606083901b166022820152600160f81b60368201529091506103b0906037016106cd565b60006103b083836108a0565b6000610218825490565b61074682826103b7565b6107755760405163e2517d3f60e01b81526001600160a01b038216600482015260248101839052604401610542565b5050565b600061078583836103b7565b610803576000838152602081815260408083206001600160a01b03861684529091529020805460ff191660011790556107bb3390565b6001600160a01b0316826001600160a01b0316847f2f8788117e7eff1d82e926ec794901d17c78024a50270940304540a733656f0d60405160405180910390a4506001610218565b506000610218565b60006103b0836001600160a01b0384166108ca565b600061082c83836103b7565b15610803576000838152602081815260408083206001600160a01b0386168085529252808320805460ff1916905551339286917ff6391f5c32d9c69d2a47ea670b442974b53935d1edc7fd64eb21e047a839171b9190a4506001610218565b60006103b0836001600160a01b038416610911565b60008260000182815481106108b7576108b7610b54565b9060005260206000200154905092915050565b600081815260018301602052604081205461080357508154600181810184556000848152602080822090930184905584548482528286019093526040902091909155610218565b600081815260018301602052604081205480156109fa576000610935600183610b6a565b855490915060009061094990600190610b6a565b90508082146109ae57600086600001828154811061096957610969610b54565b906000526020600020015490508087600001848154811061098c5761098c610b54565b6000918252602080832090910192909255918252600188019052604090208390555b85548690806109bf576109bf610b8b565b600190038181906000526020600020016000905590558560010160008681526020019081526020016000206000905560019350505050610218565b6000915050610218565b600060208284031215610a1657600080fd5b81356001600160e01b0319811681146103b057600080fd5b600060208284031215610a4057600080fd5b5035919050565b60008060408385031215610a5a57600080fd5b8235915060208301356001600160a01b0381168114610a7857600080fd5b809150509250929050565b60008060008060608587031215610a9957600080fd5b8435935060208501359250604085013567ffffffffffffffff80821115610abf57600080fd5b818701915087601f830112610ad357600080fd5b813581811115610ae257600080fd5b886020828501011115610af457600080fd5b95989497505060200194505050565b60008060408385031215610b1657600080fd5b50508035926020909101359150565b6000825160005b81811015610b465760208186018101518583015201610b2c565b506000920191825250919050565b634e487b7160e01b600052603260045260246000fd5b8181038181111561021857634e487b7160e01b600052601160045260246000fd5b634e487b7160e01b600052603160045260246000fdfea2646970667358221220a8a54131dbb587c2528af54af159d807a4f80f1545b03ee3b2cd3430356b82d164736f6c63430008140033",
  "devdoc": {
    "author": "Venkatesh",
    "custom:security-contact": "rvenki666@gmail.com",
    "details": "Inherits AccessControlEnumerable for role-based permission management",
    "errors": {
      "AccessControlBadConfirmation()": [
        {
          "details": "The caller of a function is not the expected one. NOTE: Don't confuse with {AccessControlUnauthorizedAccount}."
        }
      ],
      "AccessControlUnauthorizedAccount(address,bytes32)": [
        {
          "details": "The `account` is missing a role."
        }
      ],
      "DeployerRoleMissing()": [
        {
          "details": "Custom error for missing deployer role"
        }
      ],
      "InvalidBytecode()": [
        {
          "details": "Custom error for invalid bytecode input"
        }
      ],
      "InvalidSalt()": [
        {
          "details": "Custom error for invalid salt input"
        }
      ],
      "ZeroAddressNotAllowed()": [
        {
          "details": "Error to be thrown when a zero address is provided"
        }
      ]
    },
    "events": {
      "RoleAdminChanged(bytes32,bytes32,bytes32)": {
        "details": "Emitted when `newAdminRole` is set as ``role``'s admin role, replacing `previousAdminRole` `DEFAULT_ADMIN_ROLE` is the starting admin for all roles, despite {RoleAdminChanged} not being emitted signaling this."
      },
      "RoleGranted(bytes32,address,address)": {
        "details": "Emitted when `account` is granted `role`. `sender` is the account that originated the contract call, an admin role bearer except when using {AccessControl-_setupRole}."
      },
      "RoleRevoked(bytes32,address,address)": {
        "details": "Emitted when `account` is revoked `role`. `sender` is the account that originated the contract call:   - if using `revokeRole`, it is the admin role bearer   - if using `renounceRole`, it is the role bearer (i.e. `account`)"
      },
      "SparkRegistryContractDeployed(address,address)": {
        "params": {
          "contractAddress": "The address of the deployed contract",
          "deployedBy": "The address of the deployer"
        }
      }
    },
    "kind": "dev",
    "methods": {
      "computeAddress(bytes32)": {
        "params": {
          "_salt": "The salt used during deployment"
        },
        "returns": {
          "contractAddress": "The address of the contract deployed with the given salt"
        }
      },
      "constructor": {
        "params": {
          "_owner": "The address to be granted admin and deployer roles"
        }
      },
      "determinsiticDeploy(uint256,bytes32,bytes)": {
        "details": "Emits a SparkRegistryContractDeployed event upon successful deployment",
        "params": {
          "_amount": "The amount of ether to send with the contract creation",
          "_bytecode": "The bytecode of the contract to deploy",
          "_salt": "The salt to use for deterministic deployment"
        },
        "returns": {
          "deployedContractAddress": "The address of the deployed contract"
        }
      },
      "getRoleAdmin(bytes32)": {
        "details": "Returns the admin role that controls `role`. See {grantRole} and {revokeRole}. To change a role's admin, use {_setRoleAdmin}."
      },
      "getRoleMember(bytes32,uint256)": {
        "details": "Returns one of the accounts that have `role`. `index` must be a value between 0 and {getRoleMemberCount}, non-inclusive. Role bearers are not sorted in any particular way, and their ordering may change at any point. WARNING: When using {getRoleMember} and {getRoleMemberCount}, make sure you perform all queries on the same block. See the following https://forum.openzeppelin.com/t/iterating-over-elements-on-enumerableset-in-openzeppelin-contracts/2296[forum post] for more information."
      },
      "getRoleMemberCount(bytes32)": {
        "details": "Returns the number of accounts that have `role`. Can be used together with {getRoleMember} to enumerate all bearers of a role."
      },
      "grantRole(bytes32,address)": {
        "details": "Grants `role` to `account`. If `account` had not been already granted `role`, emits a {RoleGranted} event. Requirements: - the caller must have ``role``'s admin role. May emit a {RoleGranted} event."
      },
      "hasRole(bytes32,address)": {
        "details": "Returns `true` if `account` has been granted `role`."
      },
      "renounceRole(bytes32,address)": {
        "details": "Revokes `role` from the calling account. Roles are often managed via {grantRole} and {revokeRole}: this function's purpose is to provide a mechanism for accounts to lose their privileges if they are compromised (such as when a trusted device is misplaced). If the calling account had been revoked `role`, emits a {RoleRevoked} event. Requirements: - the caller must be `callerConfirmation`. May emit a {RoleRevoked} event."
      },
      "revokeRole(bytes32,address)": {
        "details": "Revokes `role` from `account`. If `account` had been granted `role`, emits a {RoleRevoked} event. Requirements: - the caller must have ``role``'s admin role. May emit a {RoleRevoked} event."
      },
      "supportsInterface(bytes4)": {
        "details": "See {IERC165-supportsInterface}."
      }
    },
    "stateVariables": {
      "DEPLOYER_ROLE": {
        "details": "Role identifier for deployers"
      }
    },
    "title": "SparkRegistryFactory Contract",
    "version": 1
  },
  "userdoc": {
    "events": {
      "SparkRegistryContractDeployed(address,address)": {
        "notice": "Emitted when a new SparkRegistry contract is deployed"
      }
    },
    "kind": "user",
    "methods": {
      "computeAddress(bytes32)": {
        "notice": "Computes the address of a contract deployed with a specific salt via CREATE3"
      },
      "constructor": {
        "notice": "Constructor to set up the contract with initial roles"
      },
      "determinsiticDeploy(uint256,bytes32,bytes)": {
        "notice": "Deploys a new SparkRegistry contract using CREATE3"
      }
    },
    "notice": "This contract is used for deploying new SparkRegistry contracts deterministically using CREATE3",
    "version": 1
  },
  "storageLayout": {
    "storage": [
      {
        "astId": 26,
        "contract": "contracts/Factory/SparkRegistryFactory.sol:SparkRegistryFactory",
        "label": "_roles",
        "offset": 0,
        "slot": "0",
        "type": "t_mapping(t_bytes32,t_struct(RoleData)21_storage)"
      },
      {
        "astId": 400,
        "contract": "contracts/Factory/SparkRegistryFactory.sol:SparkRegistryFactory",
        "label": "_roleMembers",
        "offset": 0,
        "slot": "1",
        "type": "t_mapping(t_bytes32,t_struct(AddressSet)4590_storage)"
      }
    ],
    "types": {
      "t_address": {
        "encoding": "inplace",
        "label": "address",
        "numberOfBytes": "20"
      },
      "t_array(t_bytes32)dyn_storage": {
        "base": "t_bytes32",
        "encoding": "dynamic_array",
        "label": "bytes32[]",
        "numberOfBytes": "32"
      },
      "t_bool": {
        "encoding": "inplace",
        "label": "bool",
        "numberOfBytes": "1"
      },
      "t_bytes32": {
        "encoding": "inplace",
        "label": "bytes32",
        "numberOfBytes": "32"
      },
      "t_mapping(t_address,t_bool)": {
        "encoding": "mapping",
        "key": "t_address",
        "label": "mapping(address => bool)",
        "numberOfBytes": "32",
        "value": "t_bool"
      },
      "t_mapping(t_bytes32,t_struct(AddressSet)4590_storage)": {
        "encoding": "mapping",
        "key": "t_bytes32",
        "label": "mapping(bytes32 => struct EnumerableSet.AddressSet)",
        "numberOfBytes": "32",
        "value": "t_struct(AddressSet)4590_storage"
      },
      "t_mapping(t_bytes32,t_struct(RoleData)21_storage)": {
        "encoding": "mapping",
        "key": "t_bytes32",
        "label": "mapping(bytes32 => struct AccessControl.RoleData)",
        "numberOfBytes": "32",
        "value": "t_struct(RoleData)21_storage"
      },
      "t_mapping(t_bytes32,t_uint256)": {
        "encoding": "mapping",
        "key": "t_bytes32",
        "label": "mapping(bytes32 => uint256)",
        "numberOfBytes": "32",
        "value": "t_uint256"
      },
      "t_struct(AddressSet)4590_storage": {
        "encoding": "inplace",
        "label": "struct EnumerableSet.AddressSet",
        "members": [
          {
            "astId": 4589,
            "contract": "contracts/Factory/SparkRegistryFactory.sol:SparkRegistryFactory",
            "label": "_inner",
            "offset": 0,
            "slot": "0",
            "type": "t_struct(Set)4275_storage"
          }
        ],
        "numberOfBytes": "64"
      },
      "t_struct(RoleData)21_storage": {
        "encoding": "inplace",
        "label": "struct AccessControl.RoleData",
        "members": [
          {
            "astId": 18,
            "contract": "contracts/Factory/SparkRegistryFactory.sol:SparkRegistryFactory",
            "label": "hasRole",
            "offset": 0,
            "slot": "0",
            "type": "t_mapping(t_address,t_bool)"
          },
          {
            "astId": 20,
            "contract": "contracts/Factory/SparkRegistryFactory.sol:SparkRegistryFactory",
            "label": "adminRole",
            "offset": 0,
            "slot": "1",
            "type": "t_bytes32"
          }
        ],
        "numberOfBytes": "64"
      },
      "t_struct(Set)4275_storage": {
        "encoding": "inplace",
        "label": "struct EnumerableSet.Set",
        "members": [
          {
            "astId": 4270,
            "contract": "contracts/Factory/SparkRegistryFactory.sol:SparkRegistryFactory",
            "label": "_values",
            "offset": 0,
            "slot": "0",
            "type": "t_array(t_bytes32)dyn_storage"
          },
          {
            "astId": 4274,
            "contract": "contracts/Factory/SparkRegistryFactory.sol:SparkRegistryFactory",
            "label": "_positions",
            "offset": 0,
            "slot": "1",
            "type": "t_mapping(t_bytes32,t_uint256)"
          }
        ],
        "numberOfBytes": "64"
      },
      "t_uint256": {
        "encoding": "inplace",
        "label": "uint256",
        "numberOfBytes": "32"
      }
    }
  }
}