{
  "address": "0xa1fF7729C681fa93DAfdaD4a761d603Fc64932Df",
  "abi": [
    {
      "inputs": [
        {
          "internalType": "address",
          "name": "_registryAddress",
          "type": "address"
        },
        {
          "internalType": "address",
          "name": "_proxyAddress",
          "type": "address"
        },
        {
          "internalType": "address",
          "name": "_implementationAddress",
          "type": "address"
        },
        {
          "internalType": "bytes32",
          "name": "_salt",
          "type": "bytes32"
        },
        {
          "internalType": "address",
          "name": "_owner",
          "type": "address"
        }
      ],
      "stateMutability": "nonpayable",
      "type": "constructor"
    },
    {
      "inputs": [],
      "name": "AccessControlBadConfirmation",
      "type": "error"
    },
    {
      "inputs": [
        {
          "internalType": "address",
          "name": "account",
          "type": "address"
        },
        {
          "internalType": "bytes32",
          "name": "neededRole",
          "type": "bytes32"
        }
      ],
      "name": "AccessControlUnauthorizedAccount",
      "type": "error"
    },
    {
      "inputs": [],
      "name": "IncompatibleNFTContract",
      "type": "error"
    },
    {
      "inputs": [],
      "name": "InvalidBytes32",
      "type": "error"
    },
    {
      "inputs": [],
      "name": "ZeroAddressNotAllowed",
      "type": "error"
    },
    {
      "anonymous": false,
      "inputs": [
        {
          "indexed": false,
          "internalType": "address",
          "name": "oldImplementationAddress",
          "type": "address"
        },
        {
          "indexed": false,
          "internalType": "address",
          "name": "newImplementationAddress",
          "type": "address"
        }
      ],
      "name": "ERC6551ImplementationUpdated",
      "type": "event"
    },
    {
      "anonymous": false,
      "inputs": [
        {
          "indexed": false,
          "internalType": "address",
          "name": "oldProxyAddress",
          "type": "address"
        },
        {
          "indexed": false,
          "internalType": "address",
          "name": "newProxyAddress",
          "type": "address"
        }
      ],
      "name": "ERC6551ProxyUpdated",
      "type": "event"
    },
    {
      "anonymous": false,
      "inputs": [
        {
          "indexed": false,
          "internalType": "address",
          "name": "oldRegistryAddress",
          "type": "address"
        },
        {
          "indexed": false,
          "internalType": "address",
          "name": "newRegistryAddress",
          "type": "address"
        }
      ],
      "name": "ERC6551RegistryUpdated",
      "type": "event"
    },
    {
      "anonymous": false,
      "inputs": [
        {
          "indexed": false,
          "internalType": "bytes32",
          "name": "oldSalt",
          "type": "bytes32"
        },
        {
          "indexed": false,
          "internalType": "bytes32",
          "name": "newSalt",
          "type": "bytes32"
        }
      ],
      "name": "ERC6551SaltUpdated",
      "type": "event"
    },
    {
      "anonymous": false,
      "inputs": [
        {
          "indexed": true,
          "internalType": "bytes32",
          "name": "role",
          "type": "bytes32"
        },
        {
          "indexed": true,
          "internalType": "bytes32",
          "name": "previousAdminRole",
          "type": "bytes32"
        },
        {
          "indexed": true,
          "internalType": "bytes32",
          "name": "newAdminRole",
          "type": "bytes32"
        }
      ],
      "name": "RoleAdminChanged",
      "type": "event"
    },
    {
      "anonymous": false,
      "inputs": [
        {
          "indexed": true,
          "internalType": "bytes32",
          "name": "role",
          "type": "bytes32"
        },
        {
          "indexed": true,
          "internalType": "address",
          "name": "account",
          "type": "address"
        },
        {
          "indexed": true,
          "internalType": "address",
          "name": "sender",
          "type": "address"
        }
      ],
      "name": "RoleGranted",
      "type": "event"
    },
    {
      "anonymous": false,
      "inputs": [
        {
          "indexed": true,
          "internalType": "bytes32",
          "name": "role",
          "type": "bytes32"
        },
        {
          "indexed": true,
          "internalType": "address",
          "name": "account",
          "type": "address"
        },
        {
          "indexed": true,
          "internalType": "address",
          "name": "sender",
          "type": "address"
        }
      ],
      "name": "RoleRevoked",
      "type": "event"
    },
    {
      "inputs": [],
      "name": "DEFAULT_ADMIN_ROLE",
      "outputs": [
        {
          "internalType": "bytes32",
          "name": "",
          "type": "bytes32"
        }
      ],
      "stateMutability": "view",
      "type": "function"
    },
    {
      "inputs": [
        {
          "internalType": "address",
          "name": "_nftContractAddress",
          "type": "address"
        },
        {
          "internalType": "uint256",
          "name": "_tokenId",
          "type": "uint256"
        }
      ],
      "name": "createTokenBoundAccount",
      "outputs": [
        {
          "internalType": "address",
          "name": "tokenBoundAccountAddress",
          "type": "address"
        }
      ],
      "stateMutability": "nonpayable",
      "type": "function"
    },
    {
      "inputs": [],
      "name": "erc6551ImplementationAddress",
      "outputs": [
        {
          "internalType": "address",
          "name": "",
          "type": "address"
        }
      ],
      "stateMutability": "view",
      "type": "function"
    },
    {
      "inputs": [],
      "name": "erc6551ProxyAddress",
      "outputs": [
        {
          "internalType": "address",
          "name": "",
          "type": "address"
        }
      ],
      "stateMutability": "view",
      "type": "function"
    },
    {
      "inputs": [],
      "name": "erc6551RegistryAddress",
      "outputs": [
        {
          "internalType": "address",
          "name": "",
          "type": "address"
        }
      ],
      "stateMutability": "view",
      "type": "function"
    },
    {
      "inputs": [],
      "name": "erc6551Salt",
      "outputs": [
        {
          "internalType": "bytes32",
          "name": "",
          "type": "bytes32"
        }
      ],
      "stateMutability": "view",
      "type": "function"
    },
    {
      "inputs": [
        {
          "internalType": "bytes32",
          "name": "role",
          "type": "bytes32"
        }
      ],
      "name": "getRoleAdmin",
      "outputs": [
        {
          "internalType": "bytes32",
          "name": "",
          "type": "bytes32"
        }
      ],
      "stateMutability": "view",
      "type": "function"
    },
    {
      "inputs": [
        {
          "internalType": "bytes32",
          "name": "role",
          "type": "bytes32"
        },
        {
          "internalType": "uint256",
          "name": "index",
          "type": "uint256"
        }
      ],
      "name": "getRoleMember",
      "outputs": [
        {
          "internalType": "address",
          "name": "",
          "type": "address"
        }
      ],
      "stateMutability": "view",
      "type": "function"
    },
    {
      "inputs": [
        {
          "internalType": "bytes32",
          "name": "role",
          "type": "bytes32"
        }
      ],
      "name": "getRoleMemberCount",
      "outputs": [
        {
          "internalType": "uint256",
          "name": "",
          "type": "uint256"
        }
      ],
      "stateMutability": "view",
      "type": "function"
    },
    {
      "inputs": [
        {
          "internalType": "address",
          "name": "_nftContractAddress",
          "type": "address"
        },
        {
          "internalType": "uint256",
          "name": "_tokenId",
          "type": "uint256"
        }
      ],
      "name": "getTokenBoundAccount",
      "outputs": [
        {
          "internalType": "address",
          "name": "tokenBoundAccountAddress",
          "type": "address"
        }
      ],
      "stateMutability": "view",
      "type": "function"
    },
    {
      "inputs": [
        {
          "internalType": "bytes32",
          "name": "role",
          "type": "bytes32"
        },
        {
          "internalType": "address",
          "name": "account",
          "type": "address"
        }
      ],
      "name": "grantRole",
      "outputs": [],
      "stateMutability": "nonpayable",
      "type": "function"
    },
    {
      "inputs": [
        {
          "internalType": "bytes32",
          "name": "role",
          "type": "bytes32"
        },
        {
          "internalType": "address",
          "name": "account",
          "type": "address"
        }
      ],
      "name": "hasRole",
      "outputs": [
        {
          "internalType": "bool",
          "name": "",
          "type": "bool"
        }
      ],
      "stateMutability": "view",
      "type": "function"
    },
    {
      "inputs": [
        {
          "internalType": "bytes32",
          "name": "role",
          "type": "bytes32"
        },
        {
          "internalType": "address",
          "name": "callerConfirmation",
          "type": "address"
        }
      ],
      "name": "renounceRole",
      "outputs": [],
      "stateMutability": "nonpayable",
      "type": "function"
    },
    {
      "inputs": [
        {
          "internalType": "bytes32",
          "name": "role",
          "type": "bytes32"
        },
        {
          "internalType": "address",
          "name": "account",
          "type": "address"
        }
      ],
      "name": "revokeRole",
      "outputs": [],
      "stateMutability": "nonpayable",
      "type": "function"
    },
    {
      "inputs": [
        {
          "internalType": "address",
          "name": "_implementationAddress",
          "type": "address"
        }
      ],
      "name": "setupERC6551Implementation",
      "outputs": [],
      "stateMutability": "nonpayable",
      "type": "function"
    },
    {
      "inputs": [
        {
          "internalType": "address",
          "name": "_proxyAddress",
          "type": "address"
        }
      ],
      "name": "setupERC6551Proxy",
      "outputs": [],
      "stateMutability": "nonpayable",
      "type": "function"
    },
    {
      "inputs": [
        {
          "internalType": "address",
          "name": "_registryAddress",
          "type": "address"
        }
      ],
      "name": "setupERC6551Registry",
      "outputs": [],
      "stateMutability": "nonpayable",
      "type": "function"
    },
    {
      "inputs": [
        {
          "internalType": "bytes32",
          "name": "_salt",
          "type": "bytes32"
        }
      ],
      "name": "setupERC6551Salt",
      "outputs": [],
      "stateMutability": "nonpayable",
      "type": "function"
    },
    {
      "inputs": [
        {
          "internalType": "bytes4",
          "name": "interfaceId",
          "type": "bytes4"
        }
      ],
      "name": "supportsInterface",
      "outputs": [
        {
          "internalType": "bool",
          "name": "",
          "type": "bool"
        }
      ],
      "stateMutability": "view",
      "type": "function"
    }
  ],
  "transactionHash": "0x367bc6ddf74f5aa67218535e2ed2f278e09ef3f354c2448edcb9f73c98398dec",
  "args": [
    "0x000000006551c19487814612e58FE06813775758",
    "0x55266d75D1a14E4572138116aF39863Ed6596E7F",
    "0x41C8f39463A868d3A88af00cd0fe7102F30E44eC",
    "0x0000000000000000000000000000000000000000000000000000000000000000",
    "0xaD733B7055eCAebFb3B38626f0148c5d12158F03"
  ],
  "numDeployments": 1,
  "solcInputHash": "f39ab2762d672e6071306da633bc21e3",
  "bytecode": "0x60806040523480156200001157600080fd5b506040516200105c3803806200105c833981016040819052620000349162000242565b6200003f85620000b5565b6200004a84620000b5565b6200005583620000b5565b6200006081620000b5565b6200006d600082620000e0565b5050600580546001600160a01b03199081166001600160a01b0396871617909155600380548216948616949094179093556004805490931691909316179055600255620002a9565b6001600160a01b038116620000dd576040516342bcdf7f60e11b815260040160405180910390fd5b50565b600080620000ef84846200011d565b9050801562000114576000848152600160205260409020620001129084620001cb565b505b90505b92915050565b6000828152602081815260408083206001600160a01b038516845290915281205460ff16620001c2576000838152602081815260408083206001600160a01b03861684529091529020805460ff19166001179055620001793390565b6001600160a01b0316826001600160a01b0316847f2f8788117e7eff1d82e926ec794901d17c78024a50270940304540a733656f0d60405160405180910390a450600162000117565b50600062000117565b600062000114836001600160a01b0384166000818152600183016020526040812054620001c25750815460018181018455600084815260208082209093018490558454848252828601909352604090209190915562000117565b80516001600160a01b03811681146200023d57600080fd5b919050565b600080600080600060a086880312156200025b57600080fd5b620002668662000225565b9450620002766020870162000225565b9350620002866040870162000225565b9250606086015191506200029d6080870162000225565b90509295509295909350565b610da380620002b96000396000f3fe608060405234801561001057600080fd5b50600436106101215760003560e01c806391d14854116100ad578063d547741f11610071578063d547741f14610268578063ee8458811461027b578063f524e60e1461028e578063fefdf41e146102a1578063ffb2ed6c146102b457600080fd5b806391d1485414610214578063a217fddf14610227578063ae57f5551461022f578063ca15c87314610242578063ce2fbb691461025557600080fd5b80632f2ff15d116100f45780632f2ff15d146101b357806336568abe146101c85780633fb06579146101db578063781c0a52146101ee5780639010d07c1461020157600080fd5b806301ffc9a7146101265780630df783f81461014e5780631e0dc90114610165578063248a9ca314610190575b600080fd5b610139610134366004610c10565b6102c7565b60405190151581526020015b60405180910390f35b61015760025481565b604051908152602001610145565b610178610173366004610c4f565b6102f2565b6040516001600160a01b039091168152602001610145565b61015761019e366004610c7b565b60009081526020819052604090206001015490565b6101c66101c1366004610c94565b6103b7565b005b6101c66101d6366004610c94565b6103e2565b6101c66101e9366004610c7b565b61041a565b600554610178906001600160a01b031681565b61017861020f366004610cc4565b61046c565b610139610222366004610c94565b610484565b610157600081565b61017861023d366004610c4f565b6104ad565b610157610250366004610c7b565b6105d8565b6101c6610263366004610ce6565b6105ef565b6101c6610276366004610c94565b61065d565b600454610178906001600160a01b031681565b6101c661029c366004610ce6565b610682565b600354610178906001600160a01b031681565b6101c66102c2366004610ce6565b6106f0565b60006001600160e01b03198216635a05180f60e01b14806102ec57506102ec8261075e565b92915050565b60006102fd83610793565b61030e836380ac58cd60e01b6107bd565b6005546003546002546001600160a01b039283169263246a0021921690466040516001600160e01b031960e086901b1681526001600160a01b0393841660048201526024810192909252604482015290861660648201526084810185905260a401602060405180830381865afa15801561038c573d6000803e3d6000fd5b505050506040513d601f19601f820116820180604052508101906103b09190610d03565b9392505050565b6000828152602081905260409020600101546103d2816107e9565b6103dc83836107f3565b50505050565b6001600160a01b038116331461040b5760405163334bd91960e11b815260040160405180910390fd5b6104158282610828565b505050565b6000610425816107e9565b600280549083905560408051828152602081018590527ff5226b938a3c52e67bf42d6bcd803f4af6cc3914c0469b6801993b44641aaba691015b60405180910390a1505050565b60008281526001602052604081206103b09083610855565b6000918252602082815260408084206001600160a01b0393909316845291905290205460ff1690565b60006104b883610793565b6104c9836380ac58cd60e01b6107bd565b6005546003546002546001600160a01b0392831692638a54c52f921690466040516001600160e01b031960e086901b1681526001600160a01b0393841660048201526024810192909252604482015290861660648201526084810185905260a4016020604051808303816000875af1158015610549573d6000803e3d6000fd5b505050506040513d601f19601f8201168201806040525081019061056d9190610d03565b6004805460405163189acdbd60e31b81526001600160a01b03918216928101929092529192509082169063c4d66de890602401600060405180830381600087803b1580156105ba57600080fd5b505af11580156105ce573d6000803e3d6000fd5b5050505092915050565b60008181526001602052604081206102ec90610861565b60006105fa816107e9565b61060382610793565b600480546001600160a01b038481166001600160a01b031983168117909355604080519190921680825260208201939093527f089c7a8ba97d6c488c9aa9b369626ff041a584cdd8806c96723c56589c76ce2a910161045f565b600082815260208190526040902060010154610678816107e9565b6103dc8383610828565b600061068d816107e9565b61069682610793565b600580546001600160a01b038481166001600160a01b031983168117909355604080519190921680825260208201939093527f36d5ec4b6f7a7c593666922d4dabbba9639d6eb3c52267e0e02613e74422c9d2910161045f565b60006106fb816107e9565b61070482610793565b600380546001600160a01b038481166001600160a01b031983168117909355604080519190921680825260208201939093527f6c3f80ddcbb776c7d1ef943cdda5cb0bd3de9ed8ef261a1e084b3240f3bfa820910161045f565b60006001600160e01b03198216637965db0b60e01b14806102ec57506301ffc9a760e01b6001600160e01b03198316146102ec565b6001600160a01b0381166107ba576040516342bcdf7f60e11b815260040160405180910390fd5b50565b60006107c9838361086b565b905080610415576040516348c05b8f60e01b815260040160405180910390fd5b6107ba8133610887565b60008061080084846108c8565b905080156103b0576000848152600160205260409020610820908461095a565b509392505050565b600080610835848461096f565b905080156103b057600084815260016020526040902061082090846109da565b60006103b083836109ef565b60006102ec825490565b600061087683610a19565b80156103b057506103b08383610a4c565b6108918282610484565b6108c45760405163e2517d3f60e01b81526001600160a01b03821660048201526024810183905260440160405180910390fd5b5050565b60006108d48383610484565b610952576000838152602081815260408083206001600160a01b03861684529091529020805460ff1916600117905561090a3390565b6001600160a01b0316826001600160a01b0316847f2f8788117e7eff1d82e926ec794901d17c78024a50270940304540a733656f0d60405160405180910390a45060016102ec565b5060006102ec565b60006103b0836001600160a01b038416610ad6565b600061097b8383610484565b15610952576000838152602081815260408083206001600160a01b0386168085529252808320805460ff1916905551339286917ff6391f5c32d9c69d2a47ea670b442974b53935d1edc7fd64eb21e047a839171b9190a45060016102ec565b60006103b0836001600160a01b038416610b1d565b6000826000018281548110610a0657610a06610d20565b9060005260206000200154905092915050565b6000610a2c826301ffc9a760e01b610a4c565b80156102ec5750610a45826001600160e01b0319610a4c565b1592915050565b6040516001600160e01b031982166024820152600090819060440160408051601f19818403018152919052602080820180516001600160e01b03166301ffc9a760e01b178152825192935060009283928392909183918a617530fa92503d91506000519050828015610abf575060208210155b8015610acb5750600081115b979650505050505050565b6000818152600183016020526040812054610952575081546001818101845560008481526020808220909301849055845484825282860190935260409020919091556102ec565b60008181526001830160205260408120548015610c06576000610b41600183610d36565b8554909150600090610b5590600190610d36565b9050808214610bba576000866000018281548110610b7557610b75610d20565b9060005260206000200154905080876000018481548110610b9857610b98610d20565b6000918252602080832090910192909255918252600188019052604090208390555b8554869080610bcb57610bcb610d57565b6001900381819060005260206000200160009055905585600101600086815260200190815260200160002060009055600193505050506102ec565b60009150506102ec565b600060208284031215610c2257600080fd5b81356001600160e01b0319811681146103b057600080fd5b6001600160a01b03811681146107ba57600080fd5b60008060408385031215610c6257600080fd5b8235610c6d81610c3a565b946020939093013593505050565b600060208284031215610c8d57600080fd5b5035919050565b60008060408385031215610ca757600080fd5b823591506020830135610cb981610c3a565b809150509250929050565b60008060408385031215610cd757600080fd5b50508035926020909101359150565b600060208284031215610cf857600080fd5b81356103b081610c3a565b600060208284031215610d1557600080fd5b81516103b081610c3a565b634e487b7160e01b600052603260045260246000fd5b818103818111156102ec57634e487b7160e01b600052601160045260246000fd5b634e487b7160e01b600052603160045260246000fdfea2646970667358221220a854db634860f236185908916c121f96ccdb5161a1189ac9de0029a316641eab64736f6c63430008140033",
  "devdoc": {
    "author": "Venkatesh",
    "custom:security-contact": "rvenki666@gmail.com",
    "errors": {
      "AccessControlBadConfirmation()": [
        {
          "details": "The caller of a function is not the expected one. NOTE: Don't confuse with {AccessControlUnauthorizedAccount}."
        }
      ],
      "AccessControlUnauthorizedAccount(address,bytes32)": [
        {
          "details": "The `account` is missing a role."
        }
      ],
      "IncompatibleNFTContract()": [
        {
          "details": "Error to be thrown when a contract does not support a required interface"
        }
      ],
      "InvalidBytes32()": [
        {
          "details": "Error to be thrown when an empty bytes32 value is provided"
        }
      ],
      "ZeroAddressNotAllowed()": [
        {
          "details": "Error to be thrown when a zero address is provided"
        }
      ]
    },
    "events": {
      "RoleAdminChanged(bytes32,bytes32,bytes32)": {
        "details": "Emitted when `newAdminRole` is set as ``role``'s admin role, replacing `previousAdminRole` `DEFAULT_ADMIN_ROLE` is the starting admin for all roles, despite {RoleAdminChanged} not being emitted signaling this."
      },
      "RoleGranted(bytes32,address,address)": {
        "details": "Emitted when `account` is granted `role`. `sender` is the account that originated the contract call, an admin role bearer except when using {AccessControl-_setupRole}."
      },
      "RoleRevoked(bytes32,address,address)": {
        "details": "Emitted when `account` is revoked `role`. `sender` is the account that originated the contract call:   - if using `revokeRole`, it is the admin role bearer   - if using `renounceRole`, it is the role bearer (i.e. `account`)"
      }
    },
    "kind": "dev",
    "methods": {
      "constructor": {
        "params": {
          "_implementationAddress": "The address of the ERC6551 implementation",
          "_owner": "The owner of the contract",
          "_proxyAddress": "The address of the ERC6551 proxy",
          "_registryAddress": "The address of the ERC6551 registry",
          "_salt": "The salt value for the ERC6551"
        }
      },
      "createTokenBoundAccount(address,uint256)": {
        "params": {
          "_nftContractAddress": "NFT contract address",
          "_tokenId": "NFT token ID"
        },
        "returns": {
          "tokenBoundAccountAddress": "NFT's token bound address"
        }
      },
      "getRoleAdmin(bytes32)": {
        "details": "Returns the admin role that controls `role`. See {grantRole} and {revokeRole}. To change a role's admin, use {_setRoleAdmin}."
      },
      "getRoleMember(bytes32,uint256)": {
        "details": "Returns one of the accounts that have `role`. `index` must be a value between 0 and {getRoleMemberCount}, non-inclusive. Role bearers are not sorted in any particular way, and their ordering may change at any point. WARNING: When using {getRoleMember} and {getRoleMemberCount}, make sure you perform all queries on the same block. See the following https://forum.openzeppelin.com/t/iterating-over-elements-on-enumerableset-in-openzeppelin-contracts/2296[forum post] for more information."
      },
      "getRoleMemberCount(bytes32)": {
        "details": "Returns the number of accounts that have `role`. Can be used together with {getRoleMember} to enumerate all bearers of a role."
      },
      "getTokenBoundAccount(address,uint256)": {
        "params": {
          "_nftContractAddress": "NFT contract address",
          "_tokenId": "NFT token ID"
        },
        "returns": {
          "tokenBoundAccountAddress": "NFT's token bound address"
        }
      },
      "grantRole(bytes32,address)": {
        "details": "Grants `role` to `account`. If `account` had not been already granted `role`, emits a {RoleGranted} event. Requirements: - the caller must have ``role``'s admin role. May emit a {RoleGranted} event."
      },
      "hasRole(bytes32,address)": {
        "details": "Returns `true` if `account` has been granted `role`."
      },
      "renounceRole(bytes32,address)": {
        "details": "Revokes `role` from the calling account. Roles are often managed via {grantRole} and {revokeRole}: this function's purpose is to provide a mechanism for accounts to lose their privileges if they are compromised (such as when a trusted device is misplaced). If the calling account had been revoked `role`, emits a {RoleRevoked} event. Requirements: - the caller must be `callerConfirmation`. May emit a {RoleRevoked} event."
      },
      "revokeRole(bytes32,address)": {
        "details": "Revokes `role` from `account`. If `account` had been granted `role`, emits a {RoleRevoked} event. Requirements: - the caller must have ``role``'s admin role. May emit a {RoleRevoked} event."
      },
      "setupERC6551Implementation(address)": {
        "params": {
          "_implementationAddress": "ERC 6551 implementation contract address"
        }
      },
      "setupERC6551Proxy(address)": {
        "params": {
          "_proxyAddress": "ERC 6551 proxy contract address"
        }
      },
      "setupERC6551Registry(address)": {
        "params": {
          "_registryAddress": "ERC 6551 registry contract address"
        }
      },
      "setupERC6551Salt(bytes32)": {
        "params": {
          "_salt": "ERC 6551 salt value (zero is officially used)"
        }
      },
      "supportsInterface(bytes4)": {
        "details": "See {IERC165-supportsInterface}."
      }
    },
    "title": "ERC6551Manager contract",
    "version": 1
  },
  "userdoc": {
    "events": {
      "ERC6551ImplementationUpdated(address,address)": {
        "notice": "Event emitted when the ERC6551 implementation is updated"
      },
      "ERC6551ProxyUpdated(address,address)": {
        "notice": "Event emitted when the ERC6551 proxy is updated"
      },
      "ERC6551RegistryUpdated(address,address)": {
        "notice": "Event emitted when the ERC6551 registry is updated"
      },
      "ERC6551SaltUpdated(bytes32,bytes32)": {
        "notice": "Event emitted when the ERC6551 salt is updated"
      }
    },
    "kind": "user",
    "methods": {
      "constructor": {
        "notice": "Constructor for the ERC6551Manager contract"
      },
      "createTokenBoundAccount(address,uint256)": {
        "notice": "Deploy the NFT's token bound account address if it is not already deployed"
      },
      "getTokenBoundAccount(address,uint256)": {
        "notice": "Determine or retrieve the NFT's token bound account address"
      },
      "setupERC6551Implementation(address)": {
        "notice": "Configure the ERC 6551 implementation contract address for TBA"
      },
      "setupERC6551Proxy(address)": {
        "notice": "Configure the ERC 6551 proxy contract address for TBA"
      },
      "setupERC6551Registry(address)": {
        "notice": "Configure the ERC 6551 registry contract address to lookup/create TBA"
      },
      "setupERC6551Salt(bytes32)": {
        "notice": "Configure the salt for the creation and lookup of token bound account"
      }
    },
    "notice": "This contract is used to manage the ERC6551 funtionalities",
    "version": 1
  },
  "storageLayout": {
    "storage": [
      {
        "astId": 26,
        "contract": "contracts/ERC6551/ERC6551Manager.sol:ERC6551Manager",
        "label": "_roles",
        "offset": 0,
        "slot": "0",
        "type": "t_mapping(t_bytes32,t_struct(RoleData)21_storage)"
      },
      {
        "astId": 400,
        "contract": "contracts/ERC6551/ERC6551Manager.sol:ERC6551Manager",
        "label": "_roleMembers",
        "offset": 0,
        "slot": "1",
        "type": "t_mapping(t_bytes32,t_struct(AddressSet)4590_storage)"
      },
      {
        "astId": 4891,
        "contract": "contracts/ERC6551/ERC6551Manager.sol:ERC6551Manager",
        "label": "erc6551Salt",
        "offset": 0,
        "slot": "2",
        "type": "t_bytes32"
      },
      {
        "astId": 4893,
        "contract": "contracts/ERC6551/ERC6551Manager.sol:ERC6551Manager",
        "label": "erc6551ProxyAddress",
        "offset": 0,
        "slot": "3",
        "type": "t_address"
      },
      {
        "astId": 4895,
        "contract": "contracts/ERC6551/ERC6551Manager.sol:ERC6551Manager",
        "label": "erc6551ImplementationAddress",
        "offset": 0,
        "slot": "4",
        "type": "t_address"
      },
      {
        "astId": 4897,
        "contract": "contracts/ERC6551/ERC6551Manager.sol:ERC6551Manager",
        "label": "erc6551RegistryAddress",
        "offset": 0,
        "slot": "5",
        "type": "t_address"
      }
    ],
    "types": {
      "t_address": {
        "encoding": "inplace",
        "label": "address",
        "numberOfBytes": "20"
      },
      "t_array(t_bytes32)dyn_storage": {
        "base": "t_bytes32",
        "encoding": "dynamic_array",
        "label": "bytes32[]",
        "numberOfBytes": "32"
      },
      "t_bool": {
        "encoding": "inplace",
        "label": "bool",
        "numberOfBytes": "1"
      },
      "t_bytes32": {
        "encoding": "inplace",
        "label": "bytes32",
        "numberOfBytes": "32"
      },
      "t_mapping(t_address,t_bool)": {
        "encoding": "mapping",
        "key": "t_address",
        "label": "mapping(address => bool)",
        "numberOfBytes": "32",
        "value": "t_bool"
      },
      "t_mapping(t_bytes32,t_struct(AddressSet)4590_storage)": {
        "encoding": "mapping",
        "key": "t_bytes32",
        "label": "mapping(bytes32 => struct EnumerableSet.AddressSet)",
        "numberOfBytes": "32",
        "value": "t_struct(AddressSet)4590_storage"
      },
      "t_mapping(t_bytes32,t_struct(RoleData)21_storage)": {
        "encoding": "mapping",
        "key": "t_bytes32",
        "label": "mapping(bytes32 => struct AccessControl.RoleData)",
        "numberOfBytes": "32",
        "value": "t_struct(RoleData)21_storage"
      },
      "t_mapping(t_bytes32,t_uint256)": {
        "encoding": "mapping",
        "key": "t_bytes32",
        "label": "mapping(bytes32 => uint256)",
        "numberOfBytes": "32",
        "value": "t_uint256"
      },
      "t_struct(AddressSet)4590_storage": {
        "encoding": "inplace",
        "label": "struct EnumerableSet.AddressSet",
        "members": [
          {
            "astId": 4589,
            "contract": "contracts/ERC6551/ERC6551Manager.sol:ERC6551Manager",
            "label": "_inner",
            "offset": 0,
            "slot": "0",
            "type": "t_struct(Set)4275_storage"
          }
        ],
        "numberOfBytes": "64"
      },
      "t_struct(RoleData)21_storage": {
        "encoding": "inplace",
        "label": "struct AccessControl.RoleData",
        "members": [
          {
            "astId": 18,
            "contract": "contracts/ERC6551/ERC6551Manager.sol:ERC6551Manager",
            "label": "hasRole",
            "offset": 0,
            "slot": "0",
            "type": "t_mapping(t_address,t_bool)"
          },
          {
            "astId": 20,
            "contract": "contracts/ERC6551/ERC6551Manager.sol:ERC6551Manager",
            "label": "adminRole",
            "offset": 0,
            "slot": "1",
            "type": "t_bytes32"
          }
        ],
        "numberOfBytes": "64"
      },
      "t_struct(Set)4275_storage": {
        "encoding": "inplace",
        "label": "struct EnumerableSet.Set",
        "members": [
          {
            "astId": 4270,
            "contract": "contracts/ERC6551/ERC6551Manager.sol:ERC6551Manager",
            "label": "_values",
            "offset": 0,
            "slot": "0",
            "type": "t_array(t_bytes32)dyn_storage"
          },
          {
            "astId": 4274,
            "contract": "contracts/ERC6551/ERC6551Manager.sol:ERC6551Manager",
            "label": "_positions",
            "offset": 0,
            "slot": "1",
            "type": "t_mapping(t_bytes32,t_uint256)"
          }
        ],
        "numberOfBytes": "64"
      },
      "t_uint256": {
        "encoding": "inplace",
        "label": "uint256",
        "numberOfBytes": "32"
      }
    }
  }
}